{
  "address": "0x5EB5fb4Ed7fe558179b99937FE309a809323940B",
  "contractName": "Document",
  "abi": [
    {
      "inputs": [],
      "payable": false,
      "stateMutability": "nonpayable",
      "type": "constructor"
    },
    {
      "constant": true,
      "inputs": [
        {
          "internalType": "string",
          "name": "",
          "type": "string"
        },
        {
          "internalType": "string",
          "name": "",
          "type": "string"
        }
      ],
      "name": "users",
      "outputs": [
        {
          "internalType": "string",
          "name": "ipfsHash",
          "type": "string"
        },
        {
          "internalType": "bool",
          "name": "isValid",
          "type": "bool"
        }
      ],
      "payable": false,
      "stateMutability": "view",
      "type": "function"
    },
    {
      "constant": false,
      "inputs": [
        {
          "internalType": "string",
          "name": "id",
          "type": "string"
        },
        {
          "internalType": "string",
          "name": "ipfs",
          "type": "string"
        },
        {
          "internalType": "string",
          "name": "txHash",
          "type": "string"
        }
      ],
      "name": "upload",
      "outputs": [],
      "payable": false,
      "stateMutability": "nonpayable",
      "type": "function"
    },
    {
      "constant": false,
      "inputs": [
        {
          "internalType": "string",
          "name": "userId",
          "type": "string"
        },
        {
          "internalType": "string",
          "name": "txHash",
          "type": "string"
        },
        {
          "internalType": "bool",
          "name": "isValid",
          "type": "bool"
        }
      ],
      "name": "validate",
      "outputs": [
        {
          "internalType": "bool",
          "name": "",
          "type": "bool"
        }
      ],
      "payable": false,
      "stateMutability": "nonpayable",
      "type": "function"
    },
    {
      "constant": true,
      "inputs": [
        {
          "internalType": "string",
          "name": "userId",
          "type": "string"
        },
        {
          "internalType": "string",
          "name": "txHash",
          "type": "string"
        }
      ],
      "name": "hasValidated",
      "outputs": [
        {
          "internalType": "bool",
          "name": "",
          "type": "bool"
        }
      ],
      "payable": false,
      "stateMutability": "view",
      "type": "function"
    }
  ],
  "bytecode": "0x608060405234801561001057600080fd5b50336000806101000a81548173ffffffffffffffffffffffffffffffffffffffff021916908373ffffffffffffffffffffffffffffffffffffffff160217905550610e1e806100606000396000f3fe608060405234801561001057600080fd5b506004361061004c5760003560e01c8063235736b414610051578063681f8541146101c75780638dee819214610331578063e0198e651461051a575b600080fd5b6101ad6004803603606081101561006757600080fd5b810190808035906020019064010000000081111561008457600080fd5b82018360208201111561009657600080fd5b803590602001918460018302840111640100000000831117156100b857600080fd5b91908080601f016020809104026020016040519081016040528093929190818152602001838380828437600081840152601f19601f8201169050808301925050505050505091929192908035906020019064010000000081111561011b57600080fd5b82018360208201111561012d57600080fd5b8035906020019184600183028401116401000000008311171561014f57600080fd5b91908080601f016020809104026020016040519081016040528093929190818152602001838380828437600081840152601f19601f8201169050808301925050505050505091929192908035151590602001909291905050506106f0565b604051808215151515815260200191505060405180910390f35b610317600480360360408110156101dd57600080fd5b81019080803590602001906401000000008111156101fa57600080fd5b82018360208201111561020c57600080fd5b8035906020019184600183028401116401000000008311171561022e57600080fd5b91908080601f016020809104026020016040519081016040528093929190818152602001838380828437600081840152601f19601f8201169050808301925050505050505091929192908035906020019064010000000081111561029157600080fd5b8201836020820111156102a357600080fd5b803590602001918460018302840111640100000000831117156102c557600080fd5b91908080601f016020809104026020016040519081016040528093929190818152602001838380828437600081840152601f19601f820116905080830192505050505050509192919290505050610893565b604051808215151515815260200191505060405180910390f35b6105186004803603606081101561034757600080fd5b810190808035906020019064010000000081111561036457600080fd5b82018360208201111561037657600080fd5b8035906020019184600183028401116401000000008311171561039857600080fd5b91908080601f016020809104026020016040519081016040528093929190818152602001838380828437600081840152601f19601f820116905080830192505050505050509192919290803590602001906401000000008111156103fb57600080fd5b82018360208201111561040d57600080fd5b8035906020019184600183028401116401000000008311171561042f57600080fd5b91908080601f016020809104026020016040519081016040528093929190818152602001838380828437600081840152601f19601f8201169050808301925050505050505091929192908035906020019064010000000081111561049257600080fd5b8201836020820111156104a457600080fd5b803590602001918460018302840111640100000000831117156104c657600080fd5b91908080601f016020809104026020016040519081016040528093929190818152602001838380828437600081840152601f19601f820116905080830192505050505050509192919290505050610a23565b005b61066a6004803603604081101561053057600080fd5b810190808035906020019064010000000081111561054d57600080fd5b82018360208201111561055f57600080fd5b8035906020019184600183028401116401000000008311171561058157600080fd5b91908080601f016020809104026020016040519081016040528093929190818152602001838380828437600081840152601f19601f820116905080830192505050505050509192919290803590602001906401000000008111156105e457600080fd5b8201836020820111156105f657600080fd5b8035906020019184600183028401116401000000008311171561061857600080fd5b91908080601f016020809104026020016040519081016040528093929190818152602001838380828437600081840152601f19601f820116905080830192505050505050509192919290505050610c01565b604051808060200183151515158152602001828103825284818151815260200191508051906020019080838360005b838110156106b4578082015181840152602081019050610699565b50505050905090810190601f1680156106e15780820380516001836020036101000a031916815260200191505b50935050505060405180910390f35b60003373ffffffffffffffffffffffffffffffffffffffff166000809054906101000a900473ffffffffffffffffffffffffffffffffffffffff1673ffffffffffffffffffffffffffffffffffffffff1614610797576040517f08c379a0000000000000000000000000000000000000000000000000000000008152600401808060200182810382526025815260200180610dc56025913960400191505060405180910390fd5b60006001856040518082805190602001908083835b602083106107cf57805182526020820191506020810190506020830392506107ac565b6001836020036101000a0380198251168184511680821785525050505050509050019150509081526020016040518091039020846040518082805190602001908083835b602083106108365780518252602082019150602081019050602083039250610813565b6001836020036101000a03801982511681845116808217855250505050505090500191505090815260200160405180910390209050828160010160006101000a81548160ff02191690831515021790555060019150509392505050565b60003373ffffffffffffffffffffffffffffffffffffffff166000809054906101000a900473ffffffffffffffffffffffffffffffffffffffff1673ffffffffffffffffffffffffffffffffffffffff161461093a576040517f08c379a0000000000000000000000000000000000000000000000000000000008152600401808060200182810382526025815260200180610dc56025913960400191505060405180910390fd5b6001836040518082805190602001908083835b60208310610970578051825260208201915060208101905060208303925061094d565b6001836020036101000a0380198251168184511680821785525050505050509050019150509081526020016040518091039020826040518082805190602001908083835b602083106109d757805182526020820191506020810190506020830392506109b4565b6001836020036101000a038019825116818451168082178552505050505050905001915050908152602001604051809103902060010160009054906101000a900460ff16905092915050565b3373ffffffffffffffffffffffffffffffffffffffff166000809054906101000a900473ffffffffffffffffffffffffffffffffffffffff1673ffffffffffffffffffffffffffffffffffffffff1614610ac8576040517f08c379a0000000000000000000000000000000000000000000000000000000008152600401808060200182810382526025815260200180610dc56025913960400191505060405180910390fd5b610ad0610d03565b6040518060400160405280848152602001600015158152509050806001856040518082805190602001908083835b60208310610b215780518252602082019150602081019050602083039250610afe565b6001836020036101000a0380198251168184511680821785525050505050509050019150509081526020016040518091039020836040518082805190602001908083835b60208310610b885780518252602082019150602081019050602083039250610b65565b6001836020036101000a03801982511681845116808217855250505050505090500191505090815260200160405180910390206000820151816000019080519060200190610bd7929190610d1f565b5060208201518160010160006101000a81548160ff02191690831515021790555090505050505050565b6001828051602081018201805184825260208301602085012081835280955050505050508180516020810182018051848252602083016020850120818352809550505050505060009150915050806000018054600181600116156101000203166002900480601f016020809104026020016040519081016040528092919081815260200182805460018160011615610100020316600290048015610ce65780601f10610cbb57610100808354040283529160200191610ce6565b820191906000526020600020905b815481529060010190602001808311610cc957829003601f168201915b5050505050908060010160009054906101000a900460ff16905082565b6040518060400160405280606081526020016000151581525090565b828054600181600116156101000203166002900490600052602060002090601f016020900481019282601f10610d6057805160ff1916838001178555610d8e565b82800160010185558215610d8e579182015b82811115610d8d578251825591602001919060010190610d72565b5b509050610d9b9190610d9f565b5090565b610dc191905b80821115610dbd576000816000905550600101610da5565b5090565b9056fe4f6e6c792061646d696e2063616e20706572666f726d2074686973206f7065726174696f6ea265627a7a72315820e737e65cc4ec9ee41b1b81479e2421f8fcd0ee0120f58e841f402bf59b8b82c264736f6c63430005100032",
  "source": "pragma solidity >=0.4.21 < 0.8.0;\r\n\r\ncontract Document{\r\n    struct DocumentItem{\r\n        string ipfsHash;\r\n        bool isValid;\r\n    }\r\n    address private owner;\r\n    mapping(string => mapping(string => DocumentItem)) public users;\r\n\r\n    constructor() public {\r\n        owner = msg.sender;\r\n    }\r\n\r\n    modifier isOwner(){\r\n        require(owner==msg.sender,\"Only admin can perform this operation\");\r\n        _;\r\n    }\r\n\r\n    function upload(string memory id, string memory ipfs, string memory txHash) public isOwner(){\r\n        DocumentItem memory documentItem= DocumentItem(ipfs,false); \r\n        users[id][txHash] = documentItem;\r\n    }\r\n\r\n    function validate(string memory userId,string memory txHash, bool isValid) public isOwner() returns (bool) {\r\n        DocumentItem storage documentItem = users[userId][txHash];\r\n        documentItem.isValid = isValid;\r\n        return true;\r\n    }\r\n\r\n    function hasValidated(string memory userId,string memory txHash) public isOwner() view returns(bool){\r\n        return users[userId][txHash].isValid;\r\n    }\r\n    \r\n}",
  "sourcePath": "F:/Hackathon/42_Debug_Entity/server/contracts/Document.sol",
  "compiler": {
    "name": "solc",
    "version": "0.5.16+commit.9c3226ce.Emscripten.clang"
  },
  "schemaVersion": "3.2.3",
  "updatedAt": "2022-01-22T19:34:09.322Z",
  "networkType": "ethereum",
  "devdoc": {
    "methods": {}
  },
  "userdoc": {
    "methods": {}
  }
}